:020000040800F2
:1000000000500020CD200008B91E0008BF1E0008C7
:10001000C51E0008CB1E0008D11E0008000000000D
:10002000000000000000000000000000D71E0008D3
:10003000E31E000800000000EF1E0008FB1E000881
:1000400015210008152100081521000815210008B8
:1000500015210008152100081521000815210008A8
:100060001521000815210008152100081521000898
:100070001521000815210008152100081521000888
:100080001521000815210008152100081521000878
:100090001521000815210008152100081521000868
:1000A0001521000815210008152100081521000858
:1000B000091F000815210008152100081521000856
:1000C0001521000815210008152100081521000838
:1000D000152100081D1F0008152100081521000822
:1000E000311F00081521000815210008000000003C
:1000F0000000000000000000000000000000000000
:0C01000000000000000000005FF808F1A3
:1001100010B5054C237833B9044B13B10448AFF341
:1001200000800123237010BDDC01002000000000CE
:10013000987D000808B5034B1BB103490348AFF392
:10014000008008BD00000000E0010020987D00084C
:10015000034613F8012B002AFBD1181A0138704707
:1001600081F0004102E000BF83F0004330B54FEA68
:1001700041044FEA430594EA050F08BF90EA020FD5
:100180001FBF54EA000C55EA020C7FEA645C7FEA68
:10019000655C00F0E2804FEA5454D4EB5555B8BF8B
:1001A0006D420CDD2C4480EA020281EA030382EAFC
:1001B000000083EA010180EA020281EA0303362D8E
:1001C00088BF30BD11F0004F4FEA01314FF4801C61
:1001D0004CEA113102D0404261EB410113F0004F73
:1001E0004FEA03334CEA133302D0524263EB43032A
:1001F00094EA050F00F0A780A4F10104D5F1200EC8
:100200000DDB02FA0EFC22FA05F2801841F1000122
:1002100003FA0EF2801843FA05F359410EE0A5F1F6
:1002200020050EF1200E012A03FA0EFC28BF4CF027
:10023000020C43FA05F3C01851EBE37101F00045DD
:1002400007D54FF0000EDCF1000C7EEB00006EEBEA
:100250000101B1F5801F1BD3B1F5001F0CD3490874
:100260005FEA30004FEA3C0C04F101044FEA4452CB
:1002700012F5800F80F09A80BCF1004F08BF5FEA52
:10028000500C50F1000041EB045141EA050130BD32
:100290005FEA4C0C404141EB0101013C28BFB1F544
:1002A000801FE9D291F0000F04BF01460020B1FA8F
:1002B00081F308BF2033A3F10B03B3F120020CDA62
:1002C0000C3208DD02F1140CC2F10C0201FA0CF040
:1002D00021FA02F10CE002F11402D8BFC2F1200CA5
:1002E00001FA02F120FA0CFCDCBF41EA0C0190405B
:1002F000E41AA2BF01EB0451294330BD6FEA0404A4
:100300001F3C1CDA0C340EDC04F11404C4F120028E
:1003100020FA04F001FA02F340EA030021FA04F3A0
:1003200045EA030130BDC4F10C04C4F1200220FAF7
:1003300002F001FA04F340EA0300294630BD21FA35
:1003400004F0294630BD94F0000F83F4801306BFFB
:1003500081F480110134013D4EE77FEA645C18BFEF
:100360007FEA655C29D094EA050F08BF90EA020F86
:1003700005D054EA000C04BF1946104630BD91EA7E
:10038000030F1EBF0021002030BD5FEA545C05D181
:100390004000494128BF41F0004130BD14F58004C0
:1003A0003CBF01F5801130BD01F0004545F0FE4134
:1003B00041F470014FF0000030BD7FEA645C1ABF69
:1003C000194610467FEA655C1CBF0B46024650EAA0
:1003D000013406BF52EA033591EA030F41F40021CC
:1003E00030BD00BF90F0000F04BF0021704730B552
:1003F0004FF4806404F132044FF000054FF0000127
:1004000050E700BF90F0000F04BF0021704730B5E7
:100410004FF4806404F1320410F0004548BF4042BC
:100420004FF000013EE700BF42004FEAE2014FEA11
:1004300031014FEA02701FBF12F07F4393F07F4FEC
:1004400081F06051704732F07F4208BF704793F0EF
:100450007F4F04BF41F40021704730B54FF4607402
:1004600001F0004521F000411CE700BF50EA010205
:1004700008BF704730B54FF000050AE050EA0102AE
:1004800008BF704730B511F0004502D5404261EB1E
:1004900041014FF4806404F132045FEA915C3FF45F
:1004A000D8AE4FF003025FEADC0C18BF03325FEAFC
:1004B000DC0C18BF033202EBDC02C2F1200300FAAD
:1004C00003FC20FA02F001FA03FE40EA0E0021FAD2
:1004D00002F11444BDE600BF70B54FF0FF0C4CF4C0
:1004E000E06C1CEA11541DBF1CEA135594EA0C0F72
:1004F00095EA0C0F00F0DEF82C4481EA030621EAAD
:100500004C5123EA4C5350EA013518BF52EA0335E7
:1005100041F4801143F4801338D0A0FB02CE4FF099
:100520000005E1FB02E506F00042E0FB03E54FF0C9
:100530000006E1FB03569CF0000F18BF4EF0010EC1
:10054000A4F1FF04B6F5007F64F5407404D25FEABD
:100550004E0E6D4146EB060642EAC62141EA555170
:100560004FEAC52040EA5E504FEACE2EB4F1FD0CB2
:1005700088BFBCF5E06F1ED8BEF1004F08BF5FEA30
:10058000500E50F1000041EB045170BD06F00046E2
:1005900046EA010140EA020081EA0301B4EB5C048F
:1005A000C2BFD4EB0C0541EA045170BD41F4801187
:1005B0004FF0000E013C00F3AB8014F1360FDEBFAC
:1005C000002001F0004170BDC4F10004203C35DA88
:1005D0000C341BDC04F11404C4F1200500FA05F30B
:1005E00020FA04F001FA05F240EA020001F00042AC
:1005F00021F0004110EBD37021FA04F642EB060122
:100600005EEA430E08BF20EAD37070BDC4F10C044B
:10061000C4F1200500FA04F320FA05F001FA04F20F
:1006200040EA020001F0004110EBD37041F10001FB
:100630005EEA430E08BF20EAD37070BDC4F1200506
:1006400000FA05F24EEA020E20FA04F301FA05F26E
:1006500043EA020321FA04F001F0004121FA04F216
:1006600020EA020000EBD3705EEA430E08BF20EAE6
:10067000D37070BD94F0000F0FD101F00046400020
:1006800041EB010111F4801F08BF013CF7D041EAA2
:10069000060195F0000F18BF704703F000465200A6
:1006A00043EB030313F4801F08BF013DF7D043EA77
:1006B0000603704794EA0C0F0CEA135518BF95EA2D
:1006C0000C0F0CD050EA410618BF52EA4306D1D1B4
:1006D00081EA030101F000414FF0000070BD50EAD3
:1006E000410606BF1046194652EA430619D094EA5D
:1006F0000C0F02D150EA013613D195EA0C0F05D147
:1007000052EA03361CBF104619460AD181EA03019A
:1007100001F0004141F0FE4141F470014FF0000052
:1007200070BD41F0FE4141F4780170BD70B54FF0ED
:10073000FF0C4CF4E06C1CEA11541DBF1CEA13556D
:1007400094EA0C0F95EA0C0F00F0A7F8A4EB05044F
:1007500081EA030E52EA03354FEA013100F0888046
:100760004FEA03334FF0805545EA131343EA12630F
:100770004FEA022245EA111545EA10654FEA0026C4
:100780000EF000419D4208BF964244F1FD0404F57D
:10079000407402D25B084FEA3202B61A65EB0305D9
:1007A0005B084FEA32024FF480104FF4002CB6EB96
:1007B000020E75EB030E22BFB61A754640EA0C0016
:1007C0005B084FEA3202B6EB020E75EB030E22BF56
:1007D000B61A754640EA5C005B084FEA3202B6EB97
:1007E000020E75EB030E22BFB61A754640EA9C0056
:1007F0005B084FEA3202B6EB020E75EB030E22BF26
:10080000B61A754640EADC0055EA060E18D04FEAE3
:10081000051545EA16754FEA06164FEAC30343EA83
:1008200052734FEAC2025FEA1C1CC0D111F4801F50
:100830000BD141EA00014FF000004FF0004CB6E749
:1008400011F4801F04BF01430020B4F1FD0C88BFE8
:10085000BCF5E06F3FF6AFAEB5EB030C04BFB6EBF3
:10086000020C5FEA500C50F1000041EB045170BDE6
:100870000EF0004E4EEA113114EB5C04C2BFD4EB13
:100880000C0541EA045170BD41F480114FF0000E97
:10089000013C90E645EA060E8DE60CEA135594EA13
:1008A0000C0F08BF95EA0C0F3FF43BAF94EA0C0F16
:1008B0000AD150EA01347FF434AF95EA0C0F7FF48B
:1008C00025AF104619462CE795EA0C0F06D152EADF
:1008D00003353FF4FDAE1046194622E750EA4106C3
:1008E00018BF52EA43067FF4C5AE50EA41047FF4D4
:1008F0000DAF52EA43057FF4EBAE12E74FF0FF3C39
:1009000006E000BF4FF0010C02E000BF4FF0010C09
:100910004DF804CD4FEA410C7FEA6C5C4FEA430C82
:1009200018BF7FEA6C5C1BD001B050EA410C0CBFD1
:1009300052EA430C91EA030F02BF90EA020F002033
:10094000704710F1000F91EA030F58BF994208BF9A
:1009500090422CBFD8176FEAE37040F00100704757
:100960004FEA410C7FEA6C5C02D150EA013C07D1AE
:100970004FEA430C7FEA6C5CD6D152EA033CD3D0F9
:100980005DF8040B704700BF8446104662468C46F3
:100990001946634600E000BF01B5FFF7B7FF002826
:1009A00048BF10F1000F01BD4DF808EDFFF7F4FF4F
:1009B0000CBF012000205DF808FB00BF4DF808EDDA
:1009C000FFF7EAFF34BF012000205DF808FB00BFFD
:1009D0004DF808EDFFF7E0FF94BF012000205DF81F
:1009E00008FB00BF4DF808EDFFF7CEFF94BF0120D4
:1009F00000205DF808FB00BF4DF808EDFFF7C4FFCD
:100A000034BF012000205DF808FB00BF4FEA410C15
:100A10007FEA6C5C02D150EA013C0AD14FEA430CF8
:100A20007FEA6C5C02D152EA033C02D14FF0000035
:100A300070474FF0010070474FEA410212F5001273
:100A400015D211D56FF47873B3EB625212D94FEA15
:100A5000C12343F0004343EA505311F0004F23FAFF
:100A600002F018BF404270474FF00000704750EA54
:100A7000013005D111F0004008BF6FF00040704711
:100A80004FF00000704700BF4FEA4102B2F1E0436F
:100A900024BFB3F5001CDCF1FE5C0DD901F0004C65
:100AA0004FEAC0024CEA5070B2F1004F40EB8300B5
:100AB00008BF20F00100704711F0804F21D113F1E1
:100AC0003872BCBF01F00040704741F480114FEA1A
:100AD0005252C2F11802C2F1200C10FA0CF320FAA3
:100AE00002F018BF40F001004FEAC1234FEAD323C0
:100AF00003FA0CFC40EA0C0023FA02F34FEA43032A
:100B0000CCE77FEA625307D150EA01331EBF4FF0B2
:100B1000FE4040F44000704701F0004040F0FE40CD
:100B200040F40000704700BF80F0004002E000BFCA
:100B300081F0004142001FBF5FEA410392EA030FC8
:100B40007FEA226C7FEA236C6AD04FEA1262D2EB12
:100B50001363C1BFD218414048404140B8BF5B4217
:100B6000192B88BF704710F0004F40F4000020F0B0
:100B70007F4018BF404211F0004F41F4000121F0C6
:100B80007F4118BF494292EA030F3FD0A2F1010210
:100B900041FA03FC10EB0C00C3F1200301FA03F14E
:100BA00000F0004302D5494260EB4000B0F5000F71
:100BB00013D3B0F1807F06D340084FEA310102F130
:100BC0000102FE2A51D2B1F1004F40EBC25008BFE2
:100BD00020F0010040EA03007047490040EB0000AC
:100BE000013A28BFB0F5000FEDD2B0FA80FCACF1AD
:100BF000080CB2EB0C0200FA0CF0AABF00EBC250DA
:100C000052421843BCBFD0401843704792F0000FC7
:100C100081F4000106BF80F400000132013BB5E71A
:100C20004FEA41037FEA226C18BF7FEA236C21D090
:100C300092EA030F04D092F0000F08BF08467047F5
:100C400090EA010F1CBF0020704712F07F4F04D1C3
:100C5000400028BF40F00040704712F100723CBFD6
:100C600000F50000704700F0004343F0FE4040F400
:100C7000000070477FEA226216BF08467FEA2363BE
:100C80000146420206BF5FEA412390EA010F40F4A9
:100C9000800070474FF0000304E000BF10F00043F5
:100CA00048BF40425FEA000C08BF704743F09643DC
:100CB00001464FF000001CE050EA010208BF7047F7
:100CC0004FF000030AE000BF50EA010208BF70477E
:100CD00011F0004302D5404261EB41015FEA010C93
:100CE00002BF84460146002043F0B64308BFA3F18B
:100CF0008053A3F50003BCFA8CF2083AA3EBC2536D
:100D000010DB01FA02FC634400FA02FCC2F120028B
:100D1000BCF1004F20FA02F243EB020008BF20F0C2
:100D20000100704702F1200201FA02FCC2F1200228
:100D300050EA4C0021FA02F243EB020008BF20EA1D
:100D4000DC7070474FF0FF0C1CEAD0521EBF1CEA4B
:100D5000D15392EA0C0F93EA0C0F6FD01A4480EA39
:100D6000010C400218BF5FEA41211ED04FF0006322
:100D700043EA501043EA5111A0FB01310CF000404E
:100D8000B1F5000F3EBF490041EAD3715B0040EA74
:100D9000010062F17F02FD2A1DD8B3F1004F40EB44
:100DA000C25008BF20F00100704790F0000F0CF017
:100DB000004C08BF49024CEA502040EA51207F3ADB
:100DC000C2BFD2F1FF0340EAC250704740F40000B6
:100DD0004FF00003013A5DDC12F1190FDCBF00F0A7
:100DE00000407047C2F10002410021FA02F1C2F155
:100DF000200200FA02FC5FEA310040F1000053EAF1
:100E00004C0308BF20EADC70704792F0000F00F03E
:100E1000004C02BF400010F4000F013AF9D040EA44
:100E20000C0093F0000F01F0004C02BF490011F4D8
:100E3000000F013BF9D041EA0C018FE70CEAD153D6
:100E400092EA0C0F18BF93EA0C0F0AD030F0004C56
:100E500018BF31F0004CD8D180EA010000F000400A
:100E6000704790F0000F17BF90F0004F084691F0C8
:100E7000000F91F0004F14D092EA0C0F01D1420202
:100E80000FD193EA0C0F03D14B0218BF084608D1CB
:100E900080EA010000F0004040F0FE4040F4000015
:100EA000704740F0FE4040F4400070474FF0FF0CA8
:100EB0001CEAD0521EBF1CEAD15392EA0C0F93EAEF
:100EC0000C0F69D0A2EB030280EA010C49024FEA41
:100ED000402037D04FF0805343EA111143EA1013FA
:100EE0000CF000408B4238BF5B0042F17D024FF4B2
:100EF000000C8B4224BF5B1A40EA0C00B3EB510F8D
:100F000024BFA3EB510340EA5C00B3EB910F24BF75
:100F1000A3EB910340EA9C00B3EBD10F24BFA3EBFA
:100F2000D10340EADC001B0118BF5FEA1C1CE0D1C2
:100F3000FD2A3FF650AF8B4240EBC25008BF20F075
:100F4000010070470CF0004C4CEA50207F32C2BFC9
:100F5000D2F1FF0340EAC250704740F400004FF066
:100F60000003013A37E792F0000F00F0004C02BF97
:100F7000400010F4000F013AF9D040EA0C0093F061
:100F8000000F01F0004C02BF490011F4000F013BBB
:100F9000F9D041EA0C0195E70CEAD15392EA0C0F23
:100FA00008D142027FF47DAF93EA0C0F7FF470AF5B
:100FB000084676E793EA0C0F04D14B023FF44CAF9E
:100FC00008466EE730F0004C18BF31F0004CCAD133
:100FD00030F000427FF45CAF31F000437FF43CAF6F
:100FE0005FE700BF4FF0FF3C06E000BF4FF0010C91
:100FF00002E000BF4FF0010C4DF804CD4FEA400273
:101000004FEA41037FEA226C18BF7FEA236C11D0BC
:1010100001B052EA530C18BF90EA010F58BFB2EB6F
:10102000030088BFC81738BF6FEAE17018BF40F0EF
:10103000010070477FEA226C02D15FEA402C05D1A3
:101040007FEA236CE4D15FEA412CE1D05DF8040B28
:10105000704700BF844608466146FFE70FB5FFF7BB
:10106000C9FF002848BF10F1000F0FBD4DF808ED73
:10107000FFF7F4FF0CBF012000205DF808FB00BF64
:101080004DF808EDFFF7EAFF34BF012000205DF8BE
:1010900008FB00BF4DF808EDFFF7E0FF94BF01200B
:1010A00000205DF808FB00BF4DF808EDFFF7D2FF08
:1010B00094BF012000205DF808FB00BF4DF808ED4B
:1010C000FFF7C8FF34BF012000205DF808FB00BF18
:1010D00042000ED2B2F1FE4F0BD34FF09E03B3EBA2
:1010E000126209D44FEA002343F0004323FA02F0CE
:1010F00070474FF00000704712F1610F01D14202BA
:1011000002D14FF0FF3070474FF00000704700BF32
:1011100080B584B000AF78604FF07E517868FFF7FB
:10112000B9FF0346002B00D10CE008497868FFF7AF
:1011300009FE03461846FFF7CBFF0346FB60044A4F
:10114000FB68536300BF1037BD4680BD00C07944C3
:101150000008004080B500AF00224FF4005107485E
:1011600001F080FB00224FF48041044801F07AFB3B
:101170004FF00000FFF7CCFF00BF80BD000C014026
:1011800080B500AF01224FF40051054801F06AFB21
:1011900000224FF48041024801F064FB00BF80BD93
:1011A000000C01400000000080B582B000AF034693
:1011B000FB71FFF7CFFF844B5B6A1846FFF712F90C
:1011C00073A3D3E90023FFF787F902460B461046C5
:1011D00019464FF000027D4BFFF7A8FA02460B4676
:1011E00010461946FFF750FC0346794A1360FB7915
:1011F000342B1ED1764B1B681846FFF715F966A3F2
:10120000D3E90023FEF7B2FF02460B46104619460B
:10121000FFF73AFC03466F4A13606F4B6F4A1A6040
:101220006F4B4FF000021A606E4B4FF000021A60D5
:10123000A4E0FB79352B1ED1654B1B681846FFF7E0
:10124000F3F857A3D3E90023FEF790FF02460B46BD
:1012500010461946FFF718FC03465E4A13605E4BC2
:10126000614A1A605E4B4FF000021A605D4B4FF00E
:1012700000021A6082E0FB79362B1DD1544B1B68AB
:101280001846FFF7D1F848A3D3E90023FEF76EFF15
:1012900002460B4610461946FFF7F6FB03464D4A39
:1012A00013604D4B514A1A604D4B514A1A604D4BD9
:1012B0004FF000021A6061E0FB79372B1DD1444BDF
:1012C0001B681846FFF7B0F839A3D3E90023FEF7EF
:1012D0004DFF02460B4610461946FFF7D5FB034665
:1012E0003C4A13603C4B434A1A603D4B404A1A60EB
:1012F0003C4B4FF000021A6040E0FB79382B1DD1C7
:10130000334B1B681846FFF78FF82BA3D3E9002354
:10131000FEF72CFF02460B4610461946FFF7B4FBBA
:1013200003462C4A13602C4B334A1A602C4B334A29
:101330001A602C4B4FF000021A601FE0FB79392B2A
:101340001CD1234B1B681846FFF76EF81CA3D3E98A
:101350000023FEF70BFF02460B4610461946FFF727
:1013600093FB03461B4A13601B4B254A1A601C4B18
:10137000224A1A601B4B4FF000021A60214801F00C
:1013800041FF00BF0837BD4680BD00BFAFF30080FE
:10139000A7E8482EFF210940A6E8482EFF21E93F93
:1013A00070F085C954C1F03FA6E8482EFF21F93FEF
:1013B000A6E8482EFF2109407DAEB6627FD91240D3
:1013C000A6E8482EFF211940000400400080664036
:1013D0004C0300204803002034030020CDCCCC3E39
:1013E000380300203C0300203333B33ECDCC4C3EC9
:1013F0000AD7A33BCDCCCC3DAE47613D6F12033C39
:10140000295C0F3DF80100202DE9B04382B000AF08
:101410004FF000037B60524B5B6A1846FEF7E2FF19
:101420004DA3D3E90023FFF757F802460B461046B9
:1014300019464FF000024B4BFFF778F902460B4676
:1014400010461946FFF720FB0346474A1360474BF7
:101450001B68454A126811461846FFF769FB0346A8
:101460001A46434B1A60434B1B681846FEF7DCFFD5
:1014700004460D46404B1846FEF7D6FF8046894687
:101480003B4B1B683D4A126811461846FFF752FB5A
:1014900003461846FEF7C8FF4FF000024FF08043A6
:1014A000FFF744F902460B4640464946FFF714F859
:1014B00002460B4620462946FEF758FE02460B46DA
:1014C00010461946FFF7E0FA03462A4A1360284BF4
:1014D0001B682A4A126811461846FFF729FB034683
:1014E0001A46254B19461046FFF7E0FC03461A46FC
:1014F000234B1A60234B1B681D4A1268114618467D
:10150000FFF720FC03461C461F4B1B68194A126854
:1015100011461846FFF716FC034619462046FFF70A
:1015200009FB03461C46194B1B68154A12681146F5
:101530001846FFF707FC034619462046FFF7FAFA5C
:1015400003467B600A4B1B680C4A13607B68184695
:101550000837BD46BDE8B083A7E8482EFF21094003
:1015600000040040008066404C0300204803002037
:1015700050030020400300200AD7233C54030020DE
:101580004403002034030020380300203C030020E3
:1015900080B582B000AFFFF737FF78604FF07E5123
:1015A0007868FFF78BFD0346002B03D04FF07E5386
:1015B0007B6023E07868FEF737FF19A3D3E90023A7
:1015C000FFF7FCF90346002B0AD04FF000017868C2
:1015D000FFF774FD0346002B02D0134B7B600DE038
:1015E0004FF000017868FFF741FD0346002B05D05E
:1015F000FFF7B0FD0D4801F0DEFD0EE001224FF4D3
:1016000000510B4801F02EF900224FF480410848A8
:1016100001F028F97868FFF77BFD0837BD4680BDEB
:10162000333333333333C33F9A99193EF8010020E3
:10163000000C014080B582B000AF0346FB71FB791E
:10164000302B0ED14FF40051324801F023F94FF402
:101650008041304801F01EF92F49304804F022F94A
:1016600049E0FB79312B0AD1FFF78AFD4FF07C501E
:10167000FFF74EFD2A49294804F014F93BE0FB79B5
:10168000322B0AD1FFF77CFD4FF07D50FFF740FD74
:101690002449224804F006F92DE0FB79332B0AD1C6
:1016A000FFF76EFD4FF07E50FFF732FD1E491B48DD
:1016B00004F0F8F81FE0FB79342B0ED0FB79352BC2
:1016C0000BD0FB79362B08D0FB79372B05D0FB7973
:1016D000382B02D0FB79392B09D114490F4804F07B
:1016E000E1F8134B1B781846FFF75EFD03E0114944
:1016F0000A4804F0D7F80948FEF72AFD03469AB2D3
:10170000642306490C4802F013FE00BF0837BD46AB
:1017100080BD00BF000C0140B07D00081803002010
:10172000C47D0008D87D0008EC7D0008007E00081C
:1017300031030020187E0008D002002080B582B05E
:1017400000AF786001220F49786802F074FE0D4BFB
:101750001B781A460C490D4804F0A4F80B48FEF714
:10176000F7FC03469AB264230849094802F0E0FDF9
:10177000044B1B781846FFF75DFF00BF0837BD46D6
:1017800080BD00BF310300202C7E0008180300201C
:10179000D002002080B500AF00F0BEFC00F07EF863
:1017A00000F004FA00F0C0F800F00CF900F05EF967
:1017B00000F0D2F901220949094802F03CFE00215B
:1017C000084801F0C9FD3C21074801F009FFFFF777
:1017D000D7FC0648FFF79CFCFEE700BF3103002062
:1017E000D002002088020020400200209A99993EF1
:1017F00080B582B000AF7860FFF7CAFE104B1B784F
:101800000133DAB20E4B1A700D4B1B78642B13D1D7
:101810000B4B00221A700B4B5B6A1A460A490B48A5
:1018200004F040F80948FEF793FC03469AB264239B
:101830000649074802F07CFD00BF0837BD4680BD61
:1018400032030020000400403C7E00081803002002
:10185000D002002080B582B000AF0346FB80FB8839
:10186000B3F5004F0FD1FFF775FC0949094804F0A3
:1018700019F80848FEF76CFC03469AB26423054940
:10188000054802F055FD00BF0837BD4680BD00BFCA
:101890004C7E000818030020D002002080B590B0D4
:1018A00000AF07F1180328220021184603F092FB2D
:1018B0003B1D00221A605A609A60DA601A610123A7
:1018C000BB614FF48033FB6100233B620123BB62A9
:1018D00002237B634FF48033BB634FF4E013FB635D
:1018E00007F11803184601F007F80346002B01D052
:1018F00000F0BEF90F237B600223BB600023FB6076
:101900004FF480633B6100237B613B1D022118463D
:1019100001F074FA0346002B01D000F0A9F900BFD2
:101920004037BD4680BD000080B586B000AF07F1EE
:10193000080300221A605A609A60DA603B4600226F
:101940001A605A601E4B4FF080421A601C4B4FF4D5
:101950007A725A601A4B00229A60194B4FF4347213
:10196000DA60174B00221A61154B80229A611448E5
:1019700001F0D2FB0346002B01D000F079F94FF4BF
:101980008053BB6007F1080319460D4802F080F848
:101990000346002B01D000F06BF900233B600023CD
:1019A0007B603B461946064802F002FC0346002BCA
:1019B00001D000F05DF900BF1837BD4680BD00BF03
:1019C000F801002080B58CB000AF07F10C03242291
:1019D0000021184603F0FEFA3B1D00221A605A60EF
:1019E000204B214A1A601F4B04225A601D4B0022D3
:1019F0009A601C4B4FF6FF72DA601A4B00221A6194
:101A0000184B80229A610323FB6000233B61012372
:101A10007B610023BB610A23FB6100233B6201233E
:101A20007B620023BB620023FB6207F10C031946B3
:101A30000C4801F033FD0346002B01D000F018F9EB
:101A400000237B600023BB603B1D1946054802F064
:101A5000AFFB0346002B01D000F00AF900BF30377E
:101A6000BD4680BD400200200004004080B58EB01D
:101A700000AF07F1280300221A605A609A60DA600A
:101A800007F1200300221A605A603B1D00221A60F1
:101A90005A609A60DA601A615A619A612C4B2D4A39
:101AA0001A602B4B23225A60294B00229A60284B44
:101AB00040F2E732DA60264B00221A61244B802282
:101AC0009A61234801F028FB0346002B01D000F067
:101AD000CFF84FF48053BB6207F1280319461C4826
:101AE00001F0D6FF0346002B01D000F0C1F81848E2
:101AF00001F0DAFB0346002B01D000F0B9F8002317
:101B00003B6200237B6207F120031946104802F074
:101B10004FFB0346002B01D000F0AAF860237B6046
:101B20000023BB600023FB6000237B613B1D002280
:101B30001946074801F0EAFE0346002B01D000F0E9
:101B400097F8034800F032F900BF3837BD4680BD32
:101B5000880200200008004080B500AF114B124AF7
:101B60001A60104B4FF416525A600E4B00229A60C6
:101B70000C4B0022DA600B4B00221A61094B0C223D
:101B80005A61084B00229A61064B0022DA6105482F
:101B900002F07EFB0346002B01D000F069F800BF85
:101BA00080BD00BFD00200200038014080B588B061
:101BB00000AF07F1100300221A605A609A60DA60E1
:101BC000284B9B69274A43F020039361254B9B696F
:101BD00003F02003FB60FB68224B9B69214A43F022
:101BE000040393611F4B9B6903F00403BB60BB6854
:101BF0001C4B9B691B4A43F008039361194B9B697B
:101C000003F008037B607B6800224FF4C041164854
:101C100000F028FE4FF4C0433B6101237B610023A9
:101C2000BB610223FB6107F1100319460E4800F067
:101C300095FC4FF400433B610C4B7B610023BB617F
:101C400007F110031946084800F088FC0022002123
:101C5000282000F09AFB282000F0B3FB00BF2037BB
:101C6000BD4680BD00100240000C01400000111074
:101C700080B400AF72B600BFFEE7000080B483B04E
:101C800000AF0E4B9B690D4A43F0010393610B4B70
:101C90009B6903F001037B607B68084BDB69074AA3
:101CA00043F08053D361054BDB6903F080533B6005
:101CB0003B6800BF0C37BD4680BC70470010024037
:101CC00080B584B000AF78607B681B68B3F1804F4B
:101CD00014D1154BDB69144A43F00103D361124B55
:101CE000DB6903F00103FB60FB68002200211C207C
:101CF00000F04BFB1C2000F064FB10E07B681B68CD
:101D00000A4A93420BD1084BDB69074A43F00403AC
:101D1000D361054BDB6903F00403BB60BB6800BF04
:101D20001037BD4680BD00BF0010024000080040D3
:101D300080B588B000AF786007F1100300221A6008
:101D40005A609A60DA607B681B68154A934223D117
:101D5000144BDB69134A43F00203D361114BDB6977
:101D600003F00203FB60FB680E4B9B690D4A43F0D6
:101D7000040393610B4B9B6903F00403BB60BB68D6
:101D8000C0233B6100237B610023BB6107F110038B
:101D90001946054800F0E2FB00BF2037BD4680BD74
:101DA00000040040001002400008014080B588B0E7
:101DB00000AF786007F1100300221A605A609A6041
:101DC000DA607B681B680F4A934217D10E4B9B6900
:101DD0000D4A43F0080393610B4B9B6903F0080322
:101DE000FB60FB6840233B6102237B610223FB61B4
:101DF00007F110031946054800F0B0FB00BF20377B
:101E0000BD4680BD0008004000100240000C0140AB
:101E100080B588B000AF786007F1100300221A6027
:101E20005A609A60DA607B681B68204A934239D115
:101E30001F4B9B691E4A43F4804393611C4B9B6973
:101E400003F48043FB60FB68194B9B69184A43F01D
:101E500004039361164B9B6903F00403BB60BB68EA
:101E60004FF400733B6102237B610323FB6107F1A5
:101E7000100319460F4800F071FB4FF480633B617B
:101E800000237B610023BB6107F110031946094859
:101E900000F064FB00220021252000F076FA2520C6
:101EA00000F08FFA00BF2037BD4680BD00380140EA
:101EB000001002400008014080B400AFFEE780B48B
:101EC00000AFFEE780B400AFFEE780B400AFFEE7EE
:101ED00080B400AFFEE780B400AF00BFBD4680BC59
:101EE000704780B400AF00BFBD4680BC704780B46F
:101EF00000AF00BFBD4680BC704780B500AF00F0AA
:101F000051F900BF80BD000080B500AF024801F06C
:101F1000F5FB00BF80BD00BFF801002080B500AF19
:101F2000024802F0ADFA00BF80BD00BFD002002021
:101F300080B500AF4FF4004000F0C6FC00BF80BD8C
:101F400080B400AF01231846BD4680BC704780B501
:101F500082B000AF7860396003F012F803461622B1
:101F60001A604FF0FF3318460837BD4680BD80B574
:101F700082B000AF78604FF0FF317868FFF7E7FF7D
:101F8000FEE780B586B000AFF860B9607A600023E4
:101F90007B610AE0AFF300800146BB685A1CBA605F
:101FA000CAB21A707B6901337B617A697B689A4295
:101FB000F0DB7B6818461837BD4680BD80B586B01B
:101FC00000AFF860B9607A6000237B6109E0BB680C
:101FD0005A1CBA601B781846AFF300807B69013346
:101FE0007B617A697B689A42F1DB7B681846183717
:101FF000BD4680BD80B483B000AF78604FF0FF3342
:1020000018460C37BD4680BC704780B483B000AF23
:10201000786039603B684FF400525A6000231846DC
:102020000C37BD4680BC704780B483B000AF786089
:10203000012318460C37BD4680BC704780B485B07C
:1020400000AFF860B9607A60002318461437BD46C7
:1020500080BC704780B586B000AF7860144A154BDD
:10206000D31A7B617B693B61134B1B68002B02D148
:10207000114B124A1A60104B1A687B6813443A6974
:102080009A4207D202F07CFF03460C221A604FF0FE
:10209000FF3309E0084B1B68FB60074B1A687B683D
:1020A0001344054A1360FB6818461837BD4680BDC7
:1020B000005000200004000058030020700300209E
:1020C00080B400AF00BFBD4680BC7047FFF7F8FF8B
:1020D0000B480C490C4A002302E0D458C450043386
:1020E000C4188C42F9D3094A094C002301E013605B
:1020F0000432A242FBD302F049FFFFF74BFB7047CB
:1021000000000020DC0100206C820008DC010020BF
:1021100070030020FEE7000080B500AF084B1B688D
:10212000074A43F010031360032000F023F90F2047
:1021300000F008F8FFF7A2FD0023184680BD00BF9D
:102140000020024080B582B000AF7860124B1A6860
:10215000124B1B7819464FF47A73B3FBF1F3B2FBC1
:10216000F3F3184600F03BF90346002B01D001239E
:102170000EE07B680F2B0AD8002279684FF0FF3001
:1021800000F003F9064A7B681360002300E0012396
:1021900018460837BD4680BD00000020080000201A
:1021A0000400002080B400AF054B1B781A46054B95
:1021B0001B681344034A136000BFBD4680BC7047D0
:1021C000080000205C03002080B400AF024B1B68B5
:1021D0001846BD4680BC70475C03002080B485B0C3
:1021E00000AF78607B6803F00703FB600C4BDB6893
:1021F000BB60BA684FF6FF031340BB60FB681A026E
:10220000BB68134343F0BF6343F40033BB60044A2D
:10221000BB68D36000BF1437BD4680BC704700BFA9
:1022200000ED00E080B400AF044BDB681B0A03F054
:1022300007031846BD4680BC704700BF00ED00E0B4
:1022400080B483B000AF0346FB7197F90730002BD1
:102250000BDBFB7903F01F02064997F907305B0996
:10226000012000FA02F241F8232000BF0C37BD46DE
:1022700080BC704700E100E080B483B000AF03464B
:102280003960FB7197F90730002B0ADB3B68DAB243
:102290000C4997F907301201D2B20B4483F800239E
:1022A0000AE03B68DAB20849FB7903F00F03043B0C
:1022B0001201D2B20B441A7600BF0C37BD4680BC67
:1022C000704700BF00E100E000ED00E080B489B09D
:1022D00000AFF860B9607A60FB6803F00703FB6148
:1022E000FB69C3F10703042B28BF0423BB61FB690F
:1022F0000433062B02D9FB69033B00E000237B611A
:102300004FF0FF32BB6902FA03F3DA43BB681A40AD
:102310007B699A404FF0FF317B6901FA03F3D9439F
:102320007B680B40134318462437BD4680BC70477A
:1023300080B582B000AF78607B68013BB3F1807FED
:1023400001D301230FE00A4A7B68013B53600F2150
:102350004FF0FF30FFF790FF054B00229A60044BCF
:1023600007221A60002318460837BD4680BD00BF0B
:1023700010E000E080B582B000AF78607868FFF7C9
:102380002DFF00BF0837BD4680BD80B586B000AFC9
:102390000346B9607A60FB7300237B61FFF742FF5D
:1023A00078617A68B9687869FFF790FF024697F913
:1023B0000F3011461846FFF75FFF00BF1837BD46C4
:1023C00080BD80B582B000AF0346FB7197F907303E
:1023D0001846FFF735FF00BF0837BD4680BD80B502
:1023E00082B000AF78607868FFF7A2FF0346184616
:1023F0000837BD4680BD80B485B000AF786000234B
:10240000FB737B6893F82130DBB2022B08D07B682A
:1024100004229A637B68002283F82020012320E0B5
:102420007B681B681A687B681B6822F00E021A60C2
:102430007B681B681A687B681B6822F001021A60BF
:102440007B681A6C7B68DB6B012101FA02F25A602F
:102450007B68012283F821207B68002283F82020FA
:10246000FB7B18461437BD4680BC704780B584B0EE
:1024700000AF78600023FB737B6893F82130DBB2F8
:10248000022B05D07B6804229A630123FB7351E081
:102490007B681B681A687B681B6822F00E021A6052
:1024A0007B681B681A687B681B6822F001021A604F
:1024B0007B681B68224A934229D07B681B68214AAB
:1024C000934222D07B681B681F4A93421AD07B68D4
:1024D0001B681E4A934212D07B681B681C4A9342B9
:1024E0000AD07B681B681B4A934202D14FF48013C9
:1024F0000EE04FF080730BE04FF4803308E04FF4B0
:10250000805305E04FF4807302E0102300E00123C4
:10251000114A53607B68012283F821207B680022E6
:1025200083F820207B685B6B002B03D07B685B6BA0
:1025300078689847FB7B18461037BD4680BD00BFC2
:10254000080002401C0002403000024044000240EB
:10255000580002406C0002400000024080B48BB082
:1025600000AF7860396000237B6200233B6269E141
:1025700001227B6A02FA03F3FB613B681B68FA697C
:102580001340BB61BA69FB699A4240F058813B68CD
:102590005B689A4A93425ED0984A934275D8984AAB
:1025A000934258D0964A93426FD8964A934252D05B
:1025B000944A934269D8944A93424CD0924A9342A7
:1025C00063D8924A934246D0904A93425DD8122BE8
:1025D0002AD8122B59D801A252F823F05726000806
:1025E0003126000843260008852600088B260008AF
:1025F0008B2600088B2600088B2600088B260008F7
:102600008B2600088B2600088B2600088B260008E6
:102610008B2600088B2600088B2600088B260008D6
:10262000392600084D260008794A934213D02CE041
:102630003B68DB683B6229E03B68DB6804333B6254
:1026400024E03B68DB6808333B621FE03B68DB68E3
:102650000C333B621AE03B689B68002B02D10423D9
:102660003B6213E03B689B68012B05D108233B626A
:102670007B68FA691A6109E008233B627B68FA69A2
:102680005A6103E000233B6200E000BFBB69FF2BFF
:1026900001D87B6801E07B6804337B61BB69FF2B59
:1026A00002D87B6A9B0002E07B6A083B9B003B618F
:1026B0007B691A680F213B6901FA03F3DB431A4077
:1026C000396A3B6901FA03F31A437B691A603B6874
:1026D0005B6803F08053002B00F0B1804D4B9B6989
:1026E0004C4A43F0010393614A4B9B6903F0010399
:1026F000BB60BB68484A7B6A9B08023352F82330B0
:10270000FB607B6A03F003039B000F2202FA03F3D2
:10271000DB43FA681340FB607B68404A934213D066
:102720007B683F4A93420DD07B683E4A934207D074
:102730007B683D4A934201D1032306E0042304E071
:10274000022302E0012300E000237A6A02F0030280
:1027500092009340FA681343FB602F497B6A9B0801
:102760000233FA6841F823203B685B6803F4801366
:10277000002B06D02D4B9A682C49BB6913438B6004
:1027800006E02A4B9A68BB69DB43284913408B60FB
:102790003B685B6803F40013002B06D0234BDA6818
:1027A0002249BB691343CB6006E0204BDA68BB6962
:1027B000DB431E491340CB603B685B6803F4003386
:1027C000002B06D0194B5A681849BB6913434B605C
:1027D00006E0164B5A68BB69DB43144913404B6053
:1027E0003B685B6803F48033002B21D00F4B1A68E1
:1027F0000E49BB6913430B6021E000BF000032109B
:102800000000311000002210000021100000121002
:1028100000001110001002400000014000080140BB
:10282000000C014000100140001401400004014070
:102830000B4B1A68BB69DB43094913400B607B6A89
:1028400001337B623B681A687B6A22FA03F3002B30
:102850007FF48EAE00BF00BF2C37BD4680BC7047F2
:102860000004014080B483B000AF78600B467B80E9
:1028700013467B707B78002B03D07A887B681A61C3
:1028800003E07B881A047B681A6100BF0C37BD46E1
:1028900080BC704780B485B000AF78600B467B8009
:1028A0007B68DB68FB607A88FB6813401A04FB686E
:1028B000D9437B880B401A437B681A6100BF1437E9
:1028C000BD4680BC7047000080B582B000AF0346B3
:1028D000FB80084B5A69FB881340002B06D0054A41
:1028E000FB885361FB881846FEF7B4FF00BF08372A
:1028F000BD4680BD0004014080B586B000AF786061
:102900007B68002B01D1012372E27B681B6803F016
:102910000103002B00F08780924B5B6803F00C03EF
:10292000042B0CD08F4B5B6803F00C03082B12D1E7
:102930008C4B5B6803F48033B3F5803F0BD1894B3C
:102940001B6803F40033002B6CD07B685B68002BA2
:1029500068D101234CE27B685B68B3F5803F06D108
:10296000804B1B687F4A43F4803313602EE07B6802
:102970005B68002B0CD17B4B1B687A4A23F48033B5
:102980001360784B1B68774A23F4802313601DE0A3
:102990007B685B68B3F5A02F0CD1724B1B68714A42
:1029A00043F4802313606F4B1B686E4A43F48033FB
:1029B00013600BE06B4B1B686A4A23F4803313608F
:1029C000684B1B68674A23F4802313607B685B684D
:1029D000002B13D0FFF7F8FB386108E0FFF7F4FB9A
:1029E00002463B69D31A642B01D9032300E25D4BF5
:1029F0001B6803F40033002BF0D014E0FFF7E4FB76
:102A0000386108E0FFF7E0FB02463B69D31A642B0C
:102A100001D90323ECE1534B1B6803F40033002B73
:102A2000F0D100E000BF7B681B6803F00203002BBD
:102A300063D04C4B5B6803F00C03002B0BD0494B6D
:102A40005B6803F00C03082B1CD1464B5B6803F456
:102A50008033002B16D1434B1B6803F00203002B7D
:102A600005D07B681B69012B01D00123C0E13D4BE0
:102A70001B6823F0F8027B685B69DB00394913436C
:102A80000B603AE07B681B69002B20D0364B01229B
:102A90001A60FFF799FB386108E0FFF795FB0246E3
:102AA0003B69D31A022B01D90323A1E12D4B1B68EB
:102AB00003F00203002BF0D02A4B1B6823F0F8022E
:102AC0007B685B69DB00274913430B6015E0264BED
:102AD00000221A60FFF778FB386108E0FFF774FB0B
:102AE00002463B69D31A022B01D9032380E11D4B17
:102AF0001B6803F00203002BF0D17B681B6803F016
:102B00000803002B3AD07B689B69002B19D0174B28
:102B100001221A60FFF758FB386108E0FFF754FB09
:102B200002463B69D31A022B01D9032360E10D4B06
:102B30005B6A03F00203002BF0D0012000F0CEFA14
:102B40001CE00A4B00221A60FFF73EFB38610FE0E1
:102B5000FFF73AFB02463B69D31A022B08D903233D
:102B600046E100BF001002400000424280044242A1
:102B7000924B5B6A03F00203002BE9D17B681B6870
:102B800003F00403002B00F0A6800023FB758B4BA1
:102B9000DB6903F08053002B0DD1884BDB69874A3A
:102BA00043F08053D361854BDB6903F08053BB60F6
:102BB000BB680123FB75824B1B6803F48073002BF9
:102BC00018D17F4B1B687E4A43F480731360FFF774
:102BD000FBFA386108E0FFF7F7FA02463B69D31ABF
:102BE000642B01D9032303E1754B1B6803F4807345
:102BF000002BF0D07B68DB68012B06D16F4B1B6A82
:102C00006E4A43F0010313622DE07B68DB68002B02
:102C10000CD16A4B1B6A694A23F001031362674BAC
:102C20001B6A664A23F0040313621CE07B68DB68BE
:102C3000052B0CD1614B1B6A604A43F004031362FD
:102C40005E4B1B6A5D4A43F0010313620BE05B4B72
:102C50001B6A5A4A23F001031362584B1B6A574AF6
:102C600023F0040313627B68DB68002B15D0FFF7A9
:102C7000ABFA38610AE0FFF7A7FA02463B69D31ABC
:102C800041F28832934201D90323B1E04B4B1B6AD6
:102C900003F00203002BEED014E0FFF795FA386141
:102CA0000AE0FFF791FA02463B69D31A41F28832F3
:102CB000934201D903239BE0404B1B6A03F00203BC
:102CC000002BEED1FB7D012B05D13C4BDB693B4A50
:102CD00023F08053D3617B68DB69002B00F0878091
:102CE000364B5B6803F00C03082B61D07B68DB6913
:102CF000022B46D1334B00221A60FFF765FA386188
:102D000008E0FFF761FA02463B69D31A022B01D9AA
:102D100003236DE0294B1B6803F00073002BF0D1F7
:102D20007B681B6AB3F5803F08D1244B5B6823F4B2
:102D300000327B689B68214913434B601F4B5B68E3
:102D400023F474127B68196A7B685B6A0B431B4926
:102D500013434B601B4B01221A60FFF735FA3861B1
:102D600008E0FFF731FA02463B69D31A022B01D97A
:102D700003233DE0114B1B6803F00073002BF0D0E0
:102D800035E0104B00221A60FFF71EFA386108E0A8
:102D9000FFF71AFA02463B69D31A022B01D9032323
:102DA00026E0064B1B6803F00073002BF0D11EE0F9
:102DB0007B68DB69012B07D1012319E00010024079
:102DC00000700040600042420B4B5B68FB60FB6898
:102DD00003F480327B681B6A9A4206D1FB6803F4D5
:102DE00070127B685B6A9A4201D0012300E00023E5
:102DF00018461837BD4680BD0010024080B584B02B
:102E000000AF786039607B68002B01D10123D0E0EE
:102E10006A4B1B6803F007033A689A4210D9674B64
:102E20001B6823F0070265493B6813430B60634B43
:102E30001B6803F007033A689A4201D00123B8E007
:102E40007B681B6803F00203002B20D07B681B68A3
:102E500003F00403002B05D0594B5B68584A43F438
:102E6000E06353607B681B6803F00803002B05D008
:102E7000534B5B68524A43F460535360504B5B685A
:102E800023F0F0027B689B684D4913434B607B68DD
:102E90001B6803F00103002B40D07B685B68012BAB
:102EA00007D1474B1B6803F40033002B15D10123D6
:102EB0007FE07B685B68022B07D1414B1B6803F006
:102EC0000073002B09D1012373E03D4B1B6803F015
:102ED0000203002B01D101236BE0394B5B6823F027
:102EE00003027B685B68364913434B60FFF76CF95C
:102EF000F8600AE0FFF768F90246FB68D31A41F26E
:102F00008832934201D9032353E02D4B5B6803F0D1
:102F10000C027B685B689B009A42EBD1274B1B68D5
:102F200003F007033A689A4210D2244B1B6823F03F
:102F3000070222493B6813430B60204B1B6803F0D8
:102F400007033A689A4201D0012332E07B681B688C
:102F500003F00403002B08D0194B5B6823F4E062F4
:102F60007B68DB68164913434B607B681B6803F082
:102F70000803002B09D0124B5B6823F460527B6876
:102F80001B69DB000E4913434B6000F021F8024639
:102F90000B4B5B681B0903F00F030A49CB5C22FA59
:102FA00003F3094A1360094B1B681846FFF7CAF878
:102FB000002318461037BD4680BD00BF00200240E8
:102FC000001002405C7E0008000000200400002089
:102FD00080B487B000AF0023FB600023BB600023F8
:102FE0007B6100237B6000233B611E4B5B68FB60C1
:102FF000FB6803F00C03042B02D0082B03D027E05E
:10300000194B3B6127E0FB689B0C03F00F03174A49
:10301000D35C7B60FB6803F48033002B10D0114B32
:103020005B685B0C03F00103114AD35CBB607B68F7
:103030000D4A03FB02F2BB68B2FBF3F37B6104E0D1
:103040007B680C4A02FB03F37B617B693B6102E016
:10305000054B3B6100BF3B6918461C37BD4680BC31
:10306000704700BF0010024000127A00747E000812
:10307000847E000800093D0080B400AF024B1B684D
:103080001846BD4680BC70470000002080B500AFE8
:10309000FFF7F2FF0246054B5B681B0A03F00703CC
:1030A0000349CB5C22FA03F3184680BD00100240AE
:1030B0006C7E000880B500AFFFF7DEFF0246054BCF
:1030C0005B68DB0A03F007030349CB5C22FA03F3D6
:1030D000184680BD001002406C7E000880B485B0A8
:1030E00000AF78600A4B1B680A4AA2FB03235B0A05
:1030F0007A6802FB03F3FB6000BFFB685A1EFA60AC
:10310000002BF9D100BF00BF1437BD4680BC70470B
:1031100000000020D34D621080B582B000AF78600F
:103120007B68002B01D1012341E07B6893F83D309F
:10313000DBB2002B06D17B68002283F83C20786844
:10314000FEF7BEFD7B68022283F83D207B681A688B
:103150007B6804331946104600F086FD7B68012227
:1031600083F846207B68012283F83E207B68012299
:1031700083F83F207B68012283F840207B6801228E
:1031800083F841207B68012283F842207B6801227A
:1031900083F843207B68012283F844207B68012266
:1031A00083F845207B68012283F83D2000231846E0
:1031B0000837BD4680BD80B483B000AF78607B68BF
:1031C0001B681A6A41F211131340002B0FD17B6860
:1031D0001B681A6A40F244431340002B07D17B68F6
:1031E0001B681A687B681B6822F001021A607B6802
:1031F000012283F83D20002318460C37BD4680BCD1
:103200007047000080B485B000AF78607B6893F8A9
:103210003D30DBB2012B01D001233AE07B68022272
:1032200083F83D207B681B68DA687B681B6842F086
:103230000102DA607B681B68184A93420ED07B68F3
:103240001B68B3F1804F09D07B681B68144A934216
:1032500004D07B681B68134A934211D17B681B68BA
:103260009B6803F00703FB60FB68062B10D07B68AC
:103270001B681A687B681B6842F001021A6007E04D
:103280007B681B681A687B681B6842F001021A6041
:10329000002318461437BD4680BC7047002C0140FF
:1032A000000400400008004080B582B000AF7860A4
:1032B0007B68002B01D1012341E07B6893F83D300E
:1032C000DBB2002B06D17B68002283F83C207868B3
:1032D00000F039F87B68022283F83D207B681A6889
:1032E0007B6804331946104600F0BEFC7B6801225F
:1032F00083F846207B68012283F83E207B68012208
:1033000083F83F207B68012283F840207B680122FC
:1033100083F841207B68012283F842207B680122E8
:1033200083F843207B68012283F844207B680122D4
:1033300083F845207B68012283F83D20002318464E
:103340000837BD4680BD80B483B000AF786000BF51
:103350000C37BD4680BC704780B584B000AF786044
:1033600039603B68002B09D17B6893F83E30DBB2B3
:10337000012B14BF01230023DBB222E03B68042BA6
:1033800009D17B6893F83F30DBB2012B14BF0123D6
:103390000023DBB215E03B68082B09D17B6893F86A
:1033A0004030DBB2012B14BF01230023DBB208E065
:1033B0007B6893F84130DBB2012B14BF012300235B
:1033C000DBB2002B01D001235EE03B68002B04D16F
:1033D0007B68022283F83E2013E03B68042B04D173
:1033E0007B68022283F83F200BE03B68082B04D166
:1033F0007B68022283F8402003E07B68022283F886
:1034000041207B681B6801223968184600F0ACFE39
:103410007B681B681E4A934207D17B681B685A6C05
:103420007B681B6842F400425A647B681B68184A38
:1034300093420ED07B681B68B3F1804F09D07B6844
:103440001B68144A934204D07B681B68124A93425B
:1034500011D17B681B689B6803F00703FB60FB6866
:10346000062B10D07B681B681A687B681B6842F0CB
:1034700001021A6007E07B681B681A687B681B689A
:1034800042F001021A60002318461037BD4680BD85
:10349000002C0140000400400008004080B586B0C8
:1034A00000AF786039607B68002B01D1012393E085
:1034B0007B6893F83D30DBB2002B06D17B6800229D
:1034C00083F83C207868FEF733FC7B68022283F89F
:1034D0003D207B681B689B687A68126823F48043F0
:1034E00023F0070393607B681A687B6804331946EE
:1034F000104600F0B9FB7B681B689B687B617B68AA
:103500001B689B693B617B681B681B6AFB603B68AF
:103510001B687A6913437B613B6923F4407323F092
:1035200003033B613B689A683B689B691B0213433A
:103530003A6913433B613B6923F4406323F00C0376
:103540003B613B6923F4704323F0F0033B613B682C
:10355000DA683B68DB691B0213433A6913433B613A
:103560003B681B691A013B681B6A1B0313433A69DA
:1035700013433B61FB6823F02203FB603B685A68FE
:103580003B685B691B011343FA681343FB607B686C
:103590001B687A699A607B681B683A699A617B68E4
:1035A0001B68FA681A627B68012283F846207B68F0
:1035B000012283F83E207B68012283F83F207B684C
:1035C000012283F842207B68012283F843207B6834
:1035D000012283F83D20002318461837BD4680BDE0
:1035E00080B584B000AF786039607B6893F83E3076
:1035F000FB737B6893F83F30BB737B6893F8423072
:103600007B737B6893F843303B733B68002B10D18E
:10361000FB7B012B02D17B7B012B01D0012369E0D5
:103620007B68022283F83E207B68022283F84220D6
:1036300031E03B68042B10D1BB7B012B02D13B7BDB
:10364000012B01D0012355E07B68022283F83F2043
:103650007B68022283F843201DE0FB7B012B08D10D
:10366000BB7B012B05D17B7B012B02D13B7B012B4B
:1036700001D001233EE07B68022283F83E207B6874
:10368000022283F83F207B68022283F842207B6875
:10369000022283F843203B68002B03D03B68042BB5
:1036A00008D00FE07B681B6801220021184600F05B
:1036B0005BFD16E07B681B6801220421184600F0C0
:1036C00053FD0EE07B681B6801220021184600F0C4
:1036D0004BFD7B681B6801220421184600F044FD65
:1036E00000BF7B681B681A687B681B6842F0010298
:1036F0001A60002318461037BD4680BD80B582B0E1
:1037000000AF78607B681B681B6903F00203022B23
:1037100022D17B681B68DB6803F00203022B1BD1FC
:103720007B681B686FF002021A617B6801221A77BE
:103730007B681B689B6903F00303002B03D0786848
:1037400000F076FA05E0786800F069FA786800F031
:1037500078FA7B6800221A777B681B681B6903F084
:103760000403042B22D17B681B68DB6803F004038D
:10377000042B1BD17B681B686FF004021A617B6805
:1037800002221A777B681B689B6903F44073002B45
:1037900003D0786800F04CFA05E0786800F03FFA52
:1037A000786800F04EFA7B6800221A777B681B6805
:1037B0001B6903F00803082B22D17B681B68DB68B8
:1037C00003F00803082B1BD17B681B686FF008020D
:1037D0001A617B6804221A777B681B68DB6903F037
:1037E0000303002B03D0786800F022FA05E0786824
:1037F00000F015FA786800F024FA7B6800221A7746
:103800007B681B681B6903F01003102B22D17B68B7
:103810001B68DB6803F01003102B1BD17B681B684F
:103820006FF010021A617B6808221A777B681B68A8
:10383000DB6903F44073002B03D0786800F0F8F9DB
:1038400005E0786800F0EBF9786800F0FAF97B6839
:1038500000221A777B681B681B6903F00103012BA8
:103860000ED17B681B68DB6803F00103012B07D1D5
:103870007B681B686FF001021A617868FDF7B8FF7A
:103880007B681B681B6903F08003802B0ED17B686B
:103890001B68DB6803F08003802B07D17B681B6803
:1038A0006FF080021A61786800F0E9FC7B681B68A1
:1038B0001B6903F04003402B0ED17B681B68DB685B
:1038C00003F04003402B07D17B681B686FF0400278
:1038D0001A61786800F0BEF97B681B681B6903F009
:1038E0002003202B0ED17B681B68DB6803F02003CC
:1038F000202B07D17B681B686FF020021A61786863
:1039000000F0B4FC00BF0837BD4680BD80B586B06E
:1039100000AFF860B9607A600023FB75FB6893F82C
:103920003C30012B01D10223AEE0FB68012283F879
:103930003C207B680C2B00F29F8001A252F823F000
:1039400075390008793A0008793A0008793A000890
:10395000B5390008793A0008793A0008793A000840
:10396000F7390008793A0008793A0008793A0008EE
:10397000373A0008FB681B68B968184600F0D6F9AA
:10398000FB681B689A69FB681B6842F008029A6131
:10399000FB681B689A69FB681B6822F004029A6145
:1039A000FB681B689969BB681A69FB681B680A4356
:1039B0009A6164E0FB681B68B968184600F01CFA5D
:1039C000FB681B689A69FB681B6842F400629A6195
:1039D000FB681B689A69FB681B6822F480629A6125
:1039E000FB681B689969BB681B691A02FB681B6846
:1039F0000A439A6143E0FB681B68B968184600F007
:103A000065FAFB681B68DA69FB681B6842F008020C
:103A1000DA61FB681B68DA69FB681B6822F0040244
:103A2000DA61FB681B68D969BB681A69FB681B68A7
:103A30000A43DA6123E0FB681B68B968184600F0A6
:103A4000AFFAFB681B68DA69FB681B6842F4006226
:103A5000DA61FB681B68DA69FB681B6822F4806224
:103A6000DA61FB681B68D969BB681B691A02FB68CD
:103A70001B680A43DA6102E00123FB7500BFFB68A3
:103A8000002283F83C20FB7D18461837BD4680BDD8
:103A900080B584B000AF786039600023FB737B6829
:103AA00093F83C30012B01D10223B4E07B68012262
:103AB00083F83C207B68022283F83D207B681B68EA
:103AC0009B68BB60BB6823F07703BB60BB6823F4D3
:103AD0007F43BB607B681B68BA689A603B681B6861
:103AE000B3F5005F3ED0B3F5005F00F28780B3F519
:103AF000805F00F08680B3F5805F7FD8702B1AD08E
:103B0000702B7BD8602B50D0602B77D8502B3CD0BB
:103B1000502B73D8402B58D0402B6FD8302B64D00B
:103B2000302B6BD8202B60D0202B67D8002B5CD09B
:103B3000102B5AD062E07B6818683B6899683B6834
:103B40005A683B68DB6800F0F0FA7B681B689B688A
:103B5000BB60BB6843F07703BB607B681B68BA68D7
:103B60009A604FE07B6818683B6899683B685A68C0
:103B70003B68DB6800F0D9FA7B681B689A687B6851
:103B80001B6842F480429A603CE07B6818683B689E
:103B900059683B68DB681A4600F050FA7B681B687E
:103BA0005021184600F0A7FA2CE07B6818683B68A3
:103BB00059683B68DB681A4600F06EFA7B681B6840
:103BC0006021184600F097FA1CE07B6818683B6893
:103BD00059683B68DB681A4600F030FA7B681B685E
:103BE0004021184600F087FA0CE07B681A683B68B1
:103BF0001B681946104600F07EFA03E00123FB73B0
:103C000000E000BF7B68012283F83D207B68002232
:103C100083F83C20FB7B18461037BD4680BD80B43E
:103C200083B000AF786000BF0C37BD4680BC7047E2
:103C300080B483B000AF786000BF0C37BD4680BC55
:103C4000704780B483B000AF786000BF0C37BD46CA
:103C500080BC704780B483B000AF786000BF0C3781
:103C6000BD4680BC7047000080B485B000AF78606E
:103C700039607B681B68FB607B68294A93420BD0E4
:103C80007B68B3F1804F07D07B68264A934203D00C
:103C90007B68254A934208D1FB6823F07003FB60E0
:103CA0003B685B68FA681343FB607B681C4A93427D
:103CB0000BD07B68B3F1804F07D07B68194A9342E1
:103CC00003D07B68184A934208D1FB6823F4407301
:103CD000FB603B68DB68FA681343FB60FB6823F01A
:103CE00080023B685B691343FB607B68FA681A607B
:103CF0003B689A687B68DA623B681A687B689A62FC
:103D00007B68074A934203D13B681A697B681A6350
:103D10007B6801225A6100BF1437BD4680BC7047E2
:103D2000002C0140000400400008004080B487B02F
:103D300000AF786039607B681B6A7B617B681B6AB7
:103D400023F001027B681A627B685B683B617B68D9
:103D50009B69FB60FB6823F07003FB60FB6823F04A
:103D60000303FB603B681B68FA681343FB607B69D5
:103D700023F002037B613B689B687A6913437B6194
:103D80007B681C4A93420CD17B6923F008037B615A
:103D90003B68DB687A6913437B617B6923F004032A
:103DA0007B617B68134A934211D13B6923F4807392
:103DB0003B613B6923F400733B613B685B693A6993
:103DC00013433B613B689B693A6913433B617B68E2
:103DD0003A695A607B68FA689A613B685A687B68FE
:103DE0005A637B687A691A6200BF1C37BD4680BC83
:103DF000704700BF002C014080B487B000AF7860EE
:103E000039607B681B6A7B617B681B6A23F0100248
:103E10007B681A627B685B683B617B689B69FB60BF
:103E2000FB6823F4E043FB60FB6823F44073FB6012
:103E30003B681B681B02FA681343FB607B6923F035
:103E400020037B613B689B681B017A6913437B619C
:103E50007B681D4A93420DD17B6923F080037B610F
:103E60003B68DB681B017A6913437B617B6923F044
:103E700040037B617B68144A934213D13B6923F46E
:103E800080633B613B6923F400633B613B685B6992
:103E90009B003A6913433B613B689B699B003A690D
:103EA00013433B617B683A695A607B68FA689A61A0
:103EB0003B685A687B689A637B687A691A6200BFBC
:103EC0001C37BD4680BC7047002C014080B487B0D1
:103ED00000AF786039607B681B6A7B617B681B6A16
:103EE00023F480727B681A627B685B683B617B6845
:103EF000DB69FB60FB6823F07003FB60FB6823F069
:103F00000303FB603B681B68FA681343FB607B6933
:103F100023F400737B613B689B681B027A6913433F
:103F20007B617B681D4A93420DD17B6923F400635A
:103F30007B613B68DB681B027A6913437B617B69A9
:103F400023F480637B617B68144A934213D13B69FD
:103F500023F480533B613B6923F400533B613B688E
:103F60005B691B013A6913433B613B689B691B0119
:103F70003A6913433B617B683A695A607B68FA6827
:103F8000DA613B685A687B68DA637B687A691A622F
:103F900000BF1C37BD4680BC704700BF002C0140ED
:103FA00080B487B000AF786039607B681B6A3B6182
:103FB0007B681B6A23F480527B681A627B685B68AB
:103FC0007B617B68DB69FB60FB6823F4E043FB609B
:103FD000FB6823F44073FB603B681B681B02FA68B4
:103FE0001343FB603B6923F400533B613B689B68D0
:103FF0001B033A6913433B617B680F4A934209D123
:104000007B6923F480437B613B685B699B017A6930
:1040100013437B617B687A695A607B68FA68DA616E
:104020003B685A687B681A647B683A691A6200BF09
:104030001C37BD4680BC7047002C014080B487B05F
:1040400000AFF860B9607A60FB681B6A7B61FB684F
:104050001B6A23F00102FB681A62FB689B693B61E3
:104060003B6923F0F0033B617B681B013A69134312
:104070003B617B6923F00A037B617A69BB68134368
:104080007B61FB683A699A61FB687A691A6200BFD2
:104090001C37BD4680BC704780B487B000AFF86065
:1040A000B9607A60FB681B6A7B61FB681B6A23F05E
:1040B0001002FB681A62FB689B693B613B6923F451
:1040C00070433B617B681B033A6913433B617B6927
:1040D00023F0A0037B61BB681B017A6913437B61FA
:1040E000FB683A699A61FB687A691A6200BF1C37FB
:1040F000BD4680BC704780B485B000AF7860396041
:104100007B689B68FB60FB6823F07003FB603A6888
:10411000FB68134343F00703FB607B68FA689A600F
:1041200000BF1437BD4680BC704780B487B000AF75
:10413000F860B9607A603B60FB689B687B617B6973
:1041400023F47F437B613B681A027B681A43BB6898
:1041500013437A6913437B61FB687A699A6000BFF5
:104160001C37BD4680BC704780B487B000AFF86094
:10417000B9607A60BB6803F01F03012202FA03F3FF
:104180007B61FB681A6A7B69DB431A40FB681A6231
:10419000FB681A6ABB6803F01F03796801FA03F32E
:1041A0001A43FB681A6200BF1C37BD4680BC7047CB
:1041B00080B485B000AF786039607B6893F83C309C
:1041C000012B01D1022346E07B68012283F83C20C9
:1041D0007B68022283F83D207B681B685B68FB607C
:1041E0007B681B689B68BB60FB6823F07003FB6007
:1041F0003B681B68FA681343FB607B681B68FA68BE
:104200005A607B681B68164A93420ED07B681B6815
:10421000B3F1804F09D07B681B68124A934204D0E7
:104220007B681B68104A93420CD1BB6823F0800363
:10423000BB603B685B68BA681343BB607B681B6804
:10424000BA689A607B68012283F83D207B6800226F
:1042500083F83C20002318461437BD4680BC7047C5
:10426000002C0140000400400008004080B483B0EE
:1042700000AF786000BF0C37BD4680BC704780B48B
:1042800083B000AF786000BF0C37BD4680BC70477C
:1042900080B582B000AF78607B68002B01D101232C
:1042A00042E07B6893F84130DBB2002B06D17B689B
:1042B000002283F840207868FDF7AAFD7B6824225D
:1042C00083F841207B681B68DA687B681B6822F4EE
:1042D0000052DA60786800F0C5FD7B681B681A69D7
:1042E0007B681B6822F490421A617B681B685A69DC
:1042F0007B681B6822F02A025A617B681B68DA68B7
:104300007B681B6842F40052DA607B6800225A64C2
:104310007B68202283F841207B68202283F842209A
:104320007B6800225A63002318460837BD4680BDCB
:1043300080B58AB002AFF860B9603B601346FB807D
:1043400000237B61FB6893F84130DBB2202B6DD1F9
:10435000BB68002B02D0FB88002B01D1012366E053
:10436000FB6800225A64FB68212283F84120FDF794
:104370002BFF7861FB68FA889A84FB68FA88DA84F4
:10438000FB689B68B3F5805F08D1FB681B69002B55
:1043900004D10023FB61BB68BB6103E0BB68FB6128
:1043A0000023BB612AE03B6800937B6900228021E7
:1043B000F86800F014FB0346002B01D0032336E01D
:1043C000FB69002B0BD1BB691B881A46FB681B6875
:1043D000C2F308025A60BB690233BB6107E0FB69A4
:1043E0001A78FB681B685A60FB690133FB61FB6844
:1043F000DB8C9BB2013B9AB2FB68DA84FB68DB8CF6
:104400009BB2002BCFD13B6800937B6900224021F7
:10441000F86800F0E4FA0346002B01D0032306E01D
:10442000FB68202283F84120002300E00223184685
:104430002037BD4680BD80B584B000AFF860B9605C
:104440001346FB80FB6893F84230DBB2202B12D17D
:10445000BB68002B02D0FB88002B01D101230BE0AD
:10446000FB6800221A63FB881A46B968F86800F0F6
:1044700024FB034600E0022318461037BD4680BDEA
:1044800080B5BAB000AF78607B681B681B68C7F85E
:10449000E4307B681B68DB68C7F8E0307B681B682A
:1044A0005B69C7F8DC300023C7F8D8300023C7F8B1
:1044B000D430D7F8E43003F00F03C7F8D830D7F87A
:1044C000D830002B0FD1D7F8E43003F02003002BB5
:1044D00009D0D7F8E03003F02003002B03D0786830
:1044E00000F001FC5BE2D7F8D830002B00F0DE8052
:1044F000D7F8DC3003F00103002B06D1D7F8E03009
:1045000003F49073002B00F0D180D7F8E43003F06F
:104510000103002B0BD0D7F8E03003F48073002B9D
:1045200005D07B685B6C43F001027B685A64D7F866
:10453000E43003F00403002B0BD0D7F8DC3003F099
:104540000103002B05D07B685B6C43F002027B68A3
:104550005A64D7F8E43003F00203002B0BD0D7F8ED
:10456000DC3003F00103002B05D07B685B6C43F06B
:1045700004027B685A64D7F8E43003F00803002B88
:1045800011D0D7F8E03003F02003002B05D1D7F885
:10459000DC3003F00103002B05D07B685B6C43F03B
:1045A00008027B685A647B685B6C002B00F0F28128
:1045B000D7F8E43003F02003002B08D0D7F8E03020
:1045C00003F02003002B02D0786800F08CFB7B689E
:1045D0001B685B6903F04003002B14BF0123002319
:1045E000DBB2C7F8D4307B685B6C03F00803002BA8
:1045F00003D1D7F8D430002B4FD0786800F096FA6A
:104600007B681B685B6903F04003002B41D07B682B
:104610001B681433C7F89C30D7F89C3053E8003F30
:10462000C7F89830D7F8983023F04003C7F8D03057
:104630007B681B681433D7F8D020C7F8A820C7F8C8
:10464000A430D7F8A410D7F8A82041E80023C7F871
:10465000A030D7F8A030002BD9D17B68DB6B002BC2
:1046600013D07B68DB6B7E4A5A637B68DB6B184632
:10467000FDF7FCFE0346002B16D07B68DB6B5B6B03
:104680007A68D26B104698470EE0786800F093F98C
:104690000AE0786800F08FF906E0786800F08BF99E
:1046A0007B6800225A6475E100BF73E17B681B6B75
:1046B000012B40F04F81D7F8E43003F01003002BBA
:1046C00000F04881D7F8E03003F01003002B00F031
:1046D00041810023BB607B681B681B68BB607B68F3
:1046E0001B685B68BB60BB687B681B685B6903F029
:1046F0004003002B00F0B6807B68DB6B1B685B68B7
:10470000A7F8BE30B7F8BE30002B00F045817B68BB
:104710009B8DB7F8BE209A4280F03E817B68B7F847
:10472000BE20DA857B68DB6B9B69202B00F08880DC
:104730007B681B680C33C7F88830D7F8883053E89B
:10474000003FC7F88430D7F8843023F48073C7F86B
:10475000B8307B681B680C33D7F8B820C7F89420B2
:10476000C7F89030D7F89010D7F8942041E800238C
:10477000C7F88C30D7F88C30002BD9D17B681B68F8
:1047800014337B677B6F53E8003F3B673B6F23F03D
:104790000103C7F8B4307B681B681433D7F8B42022
:1047A000C7F88020FB67F96FD7F8802041E8002325
:1047B000BB67BB6F002BE1D17B681B6814333B6682
:1047C0003B6E53E8003FFB65FB6D23F04003C7F8E9
:1047D000B0307B681B681433D7F8B020FA66BB662C
:1047E000B96EFA6E41E800237B667B6E002BE3D145
:1047F0007B68202283F842207B6800221A637B6852
:104800001B680C33FB64FB6C53E8003FBB64BB6C60
:1048100023F01003C7F8AC307B681B680C33D7F863
:10482000AC20BA657B65796DBA6D41E800233B65C4
:104830003B6D002BE3D17B68DB6B1846FDF7DBFD9E
:104840007B6802225A637B689A8D7B68DB8D9BB202
:10485000D31A9BB21946786800F0B6F89CE000BF06
:10486000F14B00087B689A8D7B68DB8D9BB2D31A75
:10487000A7F8CE307B68DB8D9BB2002B00F08E80DA
:10488000B7F8CE30002B00F089807B681B680C33B2
:10489000BB63BB6B53E8003F7B637B6B23F490737C
:1048A000C7F8C8307B681B680C33D7F8C8207A6417
:1048B0003B64396C7A6C41E80023FB63FB6B002B93
:1048C000E3D17B681B6814337B627B6A53E8003F4B
:1048D0003B623B6A23F00103C7F8C4307B681B6866
:1048E0001433D7F8C4203A63FB62F96A3A6B41E8A3
:1048F0000023BB62BB6A002BE3D17B68202283F8D4
:1049000042207B6800221A637B681B680C333B6182
:104910003B6953E8003FFB60FB6823F01003C7F8D6
:10492000C0307B681B680C33D7F8C020FA61BB61CC
:10493000B969FA6941E800237B617B69002BE3D107
:104940007B6802225A63B7F8CE301946786800F0C7
:104950003BF823E0D7F8E43003F08003002B09D0C4
:10496000D7F8E03003F08003002B03D0786800F024
:1049700053F914E0D7F8E43003F04003002B0ED0D5
:10498000D7F8E03003F04003002B08D0786800F03F
:1049900092F904E000BF02E000BF00E000BFE8378A
:1049A000BD4680BD80B483B000AF786000BF0C37D7
:1049B000BD4680BC704780B483B000AF786000BF54
:1049C0000C37BD4680BC704780B483B000AF7860C0
:1049D0000B467B8000BF0C37BD4680BC704780B55E
:1049E00090B000AFF860B9603B601346FB7150E0D7
:1049F000BB6CB3F1FF3F4CD0BB6C002B07D0FDF775
:104A0000E3FB02463B68D31ABA6C9A4241D2FB6878
:104A10001B680C33BB62BB6A53E8003F7B627B6A56
:104A200023F4D073FB63FB681B680C33FA6B7A6367
:104A30003B63396B7A6B41E80023FB62FB6A002B16
:104A4000E5D1FB681B6814337B617B6953E8003F49
:104A50003B613B6923F00103BB63FB681B681433B4
:104A6000BA6B3A62FB61F9693A6A41E80023BB61BB
:104A7000BB69002BE5D1FB68202283F84120FB684D
:104A8000202283F84220FB68002283F84020032381
:104A90000FE0FB681B681A68BB681340BA689A424B
:104AA0000CBF01230023DBB21A46FB799A429FD048
:104AB000002318464037BD4680BD80B485B000AFA6
:104AC000F860B9601346FB80FB68BA689A62FB68BD
:104AD000FA889A85FB68FA88DA85FB6800225A64AE
:104AE000FB68222283F84220FB681B69002B07D059
:104AF000FB681B68DA68FB681B6842F48072DA6046
:104B0000FB681B685A69FB681B6842F001025A6126
:104B1000FB681B68DA68FB681B6842F02002DA60F9
:104B2000002318461437BD4680BC704780B495B04A
:104B300000AF78607B681B680C337B637B6B53E84A
:104B4000003F3B633B6B23F49073FB647B681B6803
:104B50000C33FA6C3A64FB63F96B3A6C41E800235E
:104B6000BB63BB6B002BE5D17B681B6814333B62D6
:104B70003B6A53E8003FFB61FB6923F00103BB6420
:104B80007B681B681433BA6CFA62BB62B96AFA6A52
:104B900041E800237B627B6A002BE5D17B681B6BBD
:104BA000012B19D17B681B680C33FB60FB6853E851
:104BB000003FBB60BB6823F010037B647B681B680D
:104BC0000C337A6CBA617B617969BA6941E8002378
:104BD0003B613B69002BE5D17B68202283F84220B2
:104BE0007B6800221A6300BF5437BD4680BC704703
:104BF00080B584B000AF78607B685B6AFB60FB685F
:104C00000022DA85FB680022DA84F868FFF7D3FE19
:104C100000BF1037BD4680BD80B485B000AF78605E
:104C20007B6893F84130DBB2212B3ED17B689B68D7
:104C3000B3F5805F14D17B681B69002B10D17B68B2
:104C40001B6AFB60FB681B881A467B681B68C2F303
:104C500008025A607B681B6A9A1C7B681A6208E02B
:104C60007B681B6A591C7A6811621A787B681B681A
:104C70005A607B68DB8C9BB2013B9BB27A68194619
:104C8000D184002B0FD17B681B68DA687B681B68B6
:104C900022F08002DA607B681B68DA687B681B6838
:104CA00042F04002DA60002300E002231846143785
:104CB000BD4680BC704780B582B000AF78607B682D
:104CC0001B68DA687B681B6822F04002DA607B6848
:104CD000202283F841207868FFF764FE00231846FD
:104CE0000837BD4680BD80B58CB000AF78607B686A
:104CF00093F84230DBB2222B40F0AE807B689B6899
:104D0000B3F5805F17D17B681B69002B13D100239B
:104D1000FB627B689B6ABB627B681B685B689BB2BB
:104D2000C3F308039AB2BB6A1A807B689B6A9A1C19
:104D30007B689A6226E07B689B6AFB620023BB6209
:104D40007B689B68B3F5805F07D07B689B68002B0E
:104D50000AD17B681B69002B06D17B681B685B68E6
:104D6000DAB2FB6A1A7008E07B681B685B68DBB22A
:104D700003F07F03DAB2FB6A1A707B689B6A5A1CE5
:104D80007B689A627B68DB8D9BB2013B9BB27A6841
:104D90001946D185002B5DD17B681B68DA687B687A
:104DA0001B6822F02002DA607B681B68DA687B6887
:104DB0001B6822F48072DA607B681B685A697B6822
:104DC0001B6822F001025A617B68202283F842208E
:104DD0007B6800225A637B681B6B012B35D17B6893
:104DE00000221A637B681B680C337B617B6953E884
:104DF000003F3B613B6923F010037B627B681B68CB
:104E00000C337A6A3A62FB61F9693A6A41E8002335
:104E1000BB61BB69002BE5D17B681B681B6803F095
:104E20001003102B0AD10023FB607B681B681B68F2
:104E3000FB607B681B685B68FB60FB687B689B8D25
:104E400019467868FFF7C0FD02E07868FCF776FC49
:104E5000002302E0002300E0022318463037BD465D
:104E600080BD000080B584B000AF78607B681B68AF
:104E70001B6923F440517B68DA687B681B680A432E
:104E80001A617B689A687B681B691A437B685B6957
:104E90001343BB607B681B68DB6823F4B05323F0CB
:104EA0000C037A681268B9680B43D3607B681B688F
:104EB0005B6923F440717B689A697B681B680A43CD
:104EC0005A617B681B682C4A934203D1FEF7F2F8C3
:104ED000F86002E0FEF7DAF8F860FA6813469B0023
:104EE00013449A001A447B685B689B00B2FBF3F39F
:104EF000224AA2FB03235B091901FA6813469B00AF
:104F000013449A001A447B685B689B00B2FBF3F27F
:104F10001A4BA3FB02035B09642000FB03F3D31AC3
:104F20001B013233154AA2FB03235B0903F0F00394
:104F30001944FA6813469B0013449A001A447B688C
:104F40005B689B00B2FBF3F20C4BA3FB02035B0913
:104F5000642000FB03F3D31A1B013233074AA2FB80
:104F600003235B0903F00F027B681B680A449A6005
:104F700000BF1037BD4680BD003801401F85EB5192
:104F8000014B1868704700BF0C00002070B5002668
:104F90000C4D0D4C641BA410A64209D102F0FCFE7E
:104FA00000260A4D0A4C641BA410A64205D170BD10
:104FB00055F8043B98470136EEE755F8043B98470F
:104FC0000136F2E764820008648200086482000807
:104FD0006882000803460244934200D1704703F8F8
:104FE000011BF9E7002B2DE9F0471F46BBBF03F17A
:104FF00000431F4600232D2388B01446129A109DAB
:105000001370149BDDF84CA023F02008B8F1460F74
:1050100005D0B8F1450F00D10135022300E003238C
:1050200007AA049206AACDE902A2CDE900352246DC
:105030003B4600F0E5FCB8F1470F064602D1119B54
:10504000DB0722D5B8F1460F06EB050910D13378FE
:10505000302B0AD10022002320463946FBF7A4FC5E
:1050600018B9C5F10105CAF80050DAF800309944C2
:105070000022002320463946FBF796FC08B1CDF804
:105080001C903022079B4B4507D33046079B159A4F
:105090009B1B136008B0BDE8F087591C07911A707C
:1050A000F0E70346F7B5002903F8022BB6BF2D221F
:1050B0002B224942092942702BDD0DF10704A44639
:1050C0000A2791FBF7F60A46A64607FB1615632A40
:1050D00005F13005314604F1FF340EF8015CF0DCD7
:1050E0003031AEF1020504F8011C2946441C61452B
:1050F0000AD30DF10902A2EB0E02654588BF00221A
:105100001344181A03B0F0BD11F8012B04F8012F55
:10511000EDE7302330318370C170031DF1E70000EB
:105120002DE9F04F91B00C46DDF8688016461F4619
:10513000054601F053FA036818460993FBF708F88F
:1051400000230E93D8F800300A90073323F00703AA
:1051500003F1080294F81890D4F800B0C8F80020C1
:10516000D3E90023C4E91223D4E9128A2AF00043C8
:105170000B934FF0FF3240469C4B0B99FBF746FCDC
:1051800070BB4FF0FF324046984B0B99FBF720FC69
:1051900030BB0022002340465146FBF70FFC10B104
:1051A0002D2384F84330924B9248B9F1470F94BFB6
:1051B0009846804603234FF0000A23612BF0040336
:1051C000236033462146284600970FAA00F0D4F901
:1051D000013040F090804FF0FF3011B0BDE8F08F0B
:1051E0004246534640465146FBF710FC48B1BAF1DF
:1051F000000FB8BF2D238048B8BF84F843307F4BE1
:10520000D3E7636809F0DF015A1C42D106236360CB
:10521000002206920EAACDE904920DAA4BF48063F7
:1052200003920DF13302CDE90132236063684246F7
:105230000093284653460B91FFF7D4FE0B99804606
:1052400047290D9908D1C81C02DB6368994240DDEB
:10525000A9F102095FFA89F9B9F1650F1FD84A4629
:10526000013904F150000D91FFF71BFF0E9A8246A1
:105270001318012A236102DC2268D20701D5013309
:1052800023619DF83330002B9BD02D2384F84330CD
:1052900097E74729BCD1002BBAD10123B7E7B9F171
:1052A000660F18D1002963680BDD216113B92268EC
:1052B000D00702D501330B4423614FF0000AA165EA
:1052C000DFE713B92268D20701D50233F4E70123DF
:1052D000F2E74FF067090E9B994205DB23682161D5
:1052E000D807EAD54B1CE7E70029CCBF0122C1F162
:1052F00002021344E0E723685A0507D423694246B3
:1053000031462846B84701302BD164E7B9F1650F23
:1053100040F2DD80D4E9120100220023FBF744FBB8
:10532000002833D0012331462846354AB84701309A
:105330003FF451AFDDE90D239A4202DB2368D80721
:105340000FD5DDE9092331462846B84701303FF43F
:1053500042AF4FF0000804F11A090E9B013B434590
:1053600009DC23689B0700F10281E0680F9B9842EB
:10537000B8BF184631E701234A4631462846B847A8
:1053800001303FF428AF08F10108E6E70D9B002B40
:1053900038DC012331462846194AB84701303FF42A
:1053A0001AAFDDE90D23134302D12368D907D8D5FD
:1053B000DDE9092331462846B84701303FF40BAFF9
:1053C0004FF0000904F11A0A0D9B5B424B4501DCCA
:1053D0000E9B94E70123524631462846B8470130D8
:1053E0003FF4F9AE09F10109EEE700BFFFFFEF7FDF
:1053F0008C7E0008907E0008987E0008947E00084D
:105400009C7E00080E9AA36D9A42A8BF1A46002AF5
:10541000914637DC4FF0000B29EAE97904F11A02D2
:10542000D4F858A0AAEB09035B4533DCDDE90D2372
:105430009A423BDB2368DA0738D40E9B0D99A3EB25
:105440000A02A3EB01099145A8BF9146B9F1000FEB
:1054500034DC4FF0000829EAE97904F11A0ADDE9A1
:105460000D239B1AA3EB090343457FF77AAF012372
:10547000524631462846B84701303FF4ACAE08F1F9
:105480000108ECE71346314642462846B84701304A
:10549000C0D1A0E60123314628460B92B84701301F
:1054A0003FF499AE0B9A0BF1010BB9E73146DDE9F8
:1054B00009232846B8470130BFD18CE64B46314618
:1054C000284608EB0A02B8470130C2D183E60E9A9B
:1054D000012A01DCDB0737D5012342463146284645
:1054E000B84701303FF477AEDDE90923314628465D
:1054F000B84701303FF46FAED4E912010022002317
:10550000FBF752FAD8B90E9B08F10102013B314674
:105510002846B84701300ED15DE601234A463146A0
:105520002846B84701303FF456AE08F101080E9BFB
:10553000013B4345F1DC534604F15002E0E64FF0F5
:10554000000804F11A09F2E701234246DFE70123CC
:105550004A4631462846B84701303FF43CAE08F190
:105560000108E3680F995B1A4345F0DCFDE64FF054
:10557000000804F11909F4E72DE9F04716469946A9
:105580008A680B6907469342B8BF1346336091F8A7
:1055900043200C46DDF820800AB1013333602368D4
:1055A000990642BF336802333360256815F006055B
:1055B00006D104F1190AE36832689B1AAB4228DC71
:1055C00094F84320131E226818BF012392062DD49D
:1055D0004946384604F14302C047013020D02368D1
:1055E000E56803F00603042B18BF002532684FF06E
:1055F0000006A36808BFAD1A226908BF25EAE57551
:105600009342C4BF9B1AED181A34B5421AD1002038
:1056100008E00123524649463846C047013003D1CD
:105620004FF0FF30BDE8F0870135C4E73020E118C6
:1056300081F843005A1C94F845102244023382F842
:105640004310C5E70123224649463846C04701308A
:10565000E6D00136D9E700002DE9FF470F7E9146DD
:10566000782F80460C469A460C9D01F1430207D8DC
:10567000622F0AD8002F00F0D980582F00F0A480A4
:1056800004F1420584F842703AE0A7F16303152B58
:10569000F6D801A151F823F0F1560008055700088B
:1056A000815600088156000881560008815600087E
:1056B00005570008815600088156000881560008E9
:1056C000815600081358000835570008F5570008A0
:1056D0008156000881560008355800088156000898
:1056E000355700088156000881560008FD5700080C
:1056F0002B681A1D1B682A6004F1420584F84230A9
:105700000123A4E020682968060601F104030AD5F4
:105710000E682B60002E03DA2D23764284F8433086
:105720000A235E4819E00E6810F0400F2B6018BF86
:1057300036B2EFE72B682068191D2960010601D5F4
:105740001E6802E04606FBD51E886F2F0CBF08239B
:105750000A235248002184F843106568002DA8BF31
:105760002168A560A4BF21F0040121600EB9002DBD
:105770004DD01546B6FBF3F103FB1167C75D05F885
:10578000017D3746BB420E46F4D9082B0BD1236866
:10579000DE0708D5236961689942DEBF302305F82A
:1057A000013C05F1FF35521B22614B462146404624
:1057B000CDF800A003AAFFF7DFFE01304CD14FF077
:1057C000FF3004B0BDE8F087344881F8457029689F
:1057D000236851F8046B29601D0614D5DF0744BF08
:1057E00043F0200323601EB9236823F020032360C5
:1057F0001023AFE7236843F0200323607823284871
:1058000084F84530E3E7590648BFB6B2E6E71546E7
:10581000BBE72B682668181D6169286035061B6880
:1058200001D5196002E07006FBD5198000231546EA
:105830002361BAE72B6800211A1D2A601D6862687F
:10584000284600F0D7FE08B1401B60606368236102
:10585000002384F84330A8E72A4649464046236996
:10586000D0470130ABD023689B0713D4E068039B7B
:105870009842B8BF1846A4E701233246494640463D
:10588000D04701309BD00135E36803995B1AAB42E6
:10589000F2DCEBE7002504F11906F5E79E7E00082F
:1058A000AF7E00080EB46FF0004100B59CB01DAB98
:1058B00002900690079104910848094953F8042B77
:1058C0000591006802A9019301F07EFB0022029B72
:1058D0001A701CB05DF804EB03B070470C00002098
:1058E0000802FFFF2DE9F74F03690C690746A34241
:1058F000C0F28280013C00F1140501F1140805EBAF
:105900008403019358F8243055F8242001339A4237
:10591000B2FBF3F64FEA840B08EB840931D34FF066
:10592000000E4046AC46F24650F8042B93B206FBFC
:1059300003E3120C4FEA134E9BB206FB02E2AAEB02
:105940000303DCF800A04FEA124E1FFA8AFA534410
:10595000DCF800A092B2C2EB1A4202EB23429BB2E7
:1059600043EA024381454FEA224A4CF8043BDBD22A
:1059700055F80B302BB9019B043B9D421A462FD39F
:105980003C61384601F0D0F8002825DB28464FF06E
:10599000000C013658F8041BD0F800E08BB2ACEBD9
:1059A00003031FFA8EF213440A0CC2EB1E4202EBF1
:1059B00023429BB243EA0243C1454FEA224C40F8DE
:1059C000043BE7D255F8242005EB840322B9043BBD
:1059D0009D421A460AD33C61304603B0BDE8F08FC1
:1059E0001268043B002ACBD1013CC6E71268043B95
:1059F000002AF0D1013CEBE70020EEE700000000B8
:105A00002DE9F04F16461F46446A99B00546CDE988
:105A10000467DDF8948074B9102000F0E3FD0246BD
:105A2000686220B9EA21A84BA84801F0DDFBC0E973
:105A300001440460C4606B6A196851B15A6801235B
:105A400093404A608B60284600F030FE00226B6A6B
:105A50001A603B1EAFBF0023012223F000430593D1
:105A6000A8BFC8F80030DDF81490994BB8BFC8F84B
:105A7000002033EA090319D142F20F73249A13600C
:105A8000C9F31303334300F07F85269B53B9914B31
:105A900022E0914B03930833269A1360039819B0C0
:105AA000BDE8F08F8B4B03930333F5E7DDE9043456
:105AB000CDE90C34DDE90C0100220023FAF774FF74
:105AC000804658B10123249A1360269B002B00F0D6
:105AD000588582481860431E0393DFE716AB019395
